:020000040800F2
:102000000050002089B00008D1B00008D1B000080D
:10201000D1B00008D1B00008D1B000080000000025
:10202000000000000000000000000000D1B0000827
:10203000D1B0000800000000D1B00008158F0008E2
:10204000D1B00008D1B00008D1B00008D1B000086C
:10205000D1B00008D1B000084977000843770008E4
:102060003D7700083777000831770008D1B00008C5
:10207000D1B00008D1B00008D1B00008D1B000083C
:10208000D1B00008D1B00008D1B00008D1B000082C
:102090007D810008D1B00008D1B000081B7700088E
:1020A000D1B0000895770008D1B00008A9770008E2
:1020B000817700086D77000859770008618D000866
:1020C000518D0008418D0008318D0008D1B0000805
:1020D000D1B00008158D0008F98C0008D98C0008D3
:1020E00003770008D98E00084D8100080000000029
:1020F00000000000000000000000000000000000E0
:0C21000000000000000000005FF808F183
:10210C0090F83A30202B20D1E9B190F83830012BDF
:10211C001BD001232222C38583850023C36380F84F
:10212C003A20026880F838308162D168184641F450
:10213C008071D160516941F001015161D16841F068
:10214C002001D16070470120704702207047144B6A
:10215C0010B5DB68C3F30223C3F107041A1D042C6A
:10216C0028BF0424062A88BFDA1E4FF0FF3398BF1D
:10217C000022A34021EA0303002803FA02F3A8BFBC
:10218C0000F160404FEA0313B8BF064ADBB2ABBFA5
:10219C0000F5614000F00F0080F80033135410BDBF
:1021AC0000ED00E014ED00E003681847012A03D0AD
:1021BC00022A03D0002070470160FBE70B68036024
:1021CC00F8E7094B1A68516821F010015160586901
:1021DC005168890601D5002070475969091AB1F573
:1021EC007A7FF5D903207047E8020020094B586923
:1021FC001A685168890605D55368002043F010030E
:10220C00536070475969091AB1F57A7FF1D90320E7
:10221C00704700BFE802002010B50446FFF7E6FF48
:10222C0058B9074B220C1B68A4B21A625C62FFF708
:10223C00C8FF003018BF012010BD0120FCE700BF13
:10224C00E8020020094B30B51B689A69D869996976
:10225C0095B28CB2A54217BFD86980B280B240EA61
:10226C00014008BF40EA024030BD00BFE802002038
:10227C00034B1B68186A5B6A9BB243EA00407047C9
:10228C00E802002010B50446FFF7B0FF58B9074B21
:10229C00220C1B68A4B29A61DC61FFF792FF00303C
:1022AC0018BF012010BD0120FCE700BFE802002090
:1022BC00094B1A68516821F008015160586951683E
:1022CC00090701D5002070475969091AB1F57A7FC1
:1022DC00F5D90320704700BFE8020020002808DB76
:1022EC000123420900F01F0003FA00F0014B43F8F0
:1022FC002200704700E100E0012280F83C200268D7
:10230C000346106882B0C0075EBF106840F0010041
:10231C001060106820F4006010602A2083F83D00E3
:10232C002020596283F83E00012100201864598551
:10233C00598D19850421D9620190516901919169D6
:10234C0083F83C0001910199536843F4E0635360B6
:10235C0002B0704730B503680E4D1C6831EA0404B6
:10236C0001D1002015E06C69A41AB4F57A7FF4D978
:10237C00DA6822F4D072DA605A6922F001025A61EA
:10238C00202380F8393080F83A30002380F8383038
:10239C00032030BDE802002090F83930202B18D1F2
:1023AC00A9B190F83830012B13D001232122C3841A
:1023BC008384002301620168C36380F8383080F89D
:1023CC003920CA68184642F08002CA607047012062
:1023DC007047022070471D4B82B0B3F8DA2092B2DE
:1023EC00ADF80620B3F8D820BDF8061091421A4675
:1023FC001FD8B3F8D8307F2B08D9B2F8D8309BB29D
:10240C00802B09D1BDF806309BB22BB1B2F8D83075
:10241C000F48184402B07047BDF80630402B13D952
:10242C00B2F8D8309BB2A2F8DC300023A2F8D83036
:10243C00ECE7B3F8D820BDF8061040328A4203D23C
:10244C00B3F8D8001833E4E70020E3E7E8020020F3
:10245C0000030020104B82B0B3F8D82092B2ADF834
:10246C000420B3F8DC2092B2ADF80620B3F8DA20E1
:10247C00BDF8041091423BBFBDF80620BDF8040026
:10248C00BDF80400B3F8DA302CBFB3F8DA3080189A
:10249C00C01A02B0704700BFE8020020002370B5DC
:1024AC0001385A1C845C74B9DBB20D4A01335B00F1
:1024BC000B8082F8E030032382F8E130022310F81D
:1024CC00015F15B970BD1346EBE7591CC9B2D6189C
:1024DC001144023386F8E050DBB281F8E040EEE7BD
:1024EC00E8020020B6E738B5002383608B68044609
:1024FC000D462BB102229847EB68E360AB68A360F2
:10250C00204638BD10B58368044613B1032201463A
:10251C009847204610BD2DE9F04F8BB001924FF03B
:10252C0000080A46012A08F1010402D05208A0460C
:10253C00F8E70022012716461446FF2994BF0568C8
:10254C00456807FA02FC614505D11646FF294FEA9A
:10255C00820488BF203C0132102AF2D10F22A24003
:10256C002A40082505FA04F4A24242D10122C4688B
:10257C00B240A2430CBF012202224FF0000C66466F
:10258C000092DFF8A091624A31FA06F433D1142597
:10259C005FFA88F35D435F4C06AE671901993046CC
:1025AC00FFF7A1FF96E8030007F5F27704AA82E88B
:1025BC000300D7E9000186E8030092E80300089BBA
:1025CC00BA68BB60099B0892FA68C7E90001FB6016
:1025DC002C4430460992FFF795FF062194F9E0014F
:1025EC00FFF7B5FD94F9E001FFF778FE0BB0BDE8FD
:1025FC00F08F0022C1E70125B54001EA0504A54290
:10260C007AD1454FBB4205D08CBF444FA7F58017FC
:10261C00BB4208D1009F002F70D04FF0080C012F47
:10262C000CBF056145610F27FF2C98BF86464FEA0A
:10263C00860592BFD0F800A0D0F804A0203D07FA80
:10264C0005F72AEA07070CFA05F547EA050788BFDC
:10265C0000F1040ECEF80070D9F8185026F00307DC
:10266C0045F00105C9F81850D9F8185007F1804702
:10267C0005F001050395039D294D07F58037A84208
:10268C00D7F808A03DD005F58065A8423BD005F5EC
:10269C008065A84239D005F58065A8420CBF03259A
:1026AC0004254FF00F0B06F0030E4FEA8E0E0BFABB
:1026BC000EFB2AEA0B0A05FA0EF545EA0A05BD607F
:1026CC00E543176813F4803F14BF27432F4017606E
:1026DC00576813F4801F07EA05075760976814BF03
:1026EC0027432F4097609F024BBFD568D4682C437B
:1026FC0025404CBFD460D560013645E74FF0040C43
:10270C0091E70025CDE70125CBE70225C9E700BFFE
:10271C0000040140E80200200000211000003110EC
:10272C0000080140001002400849B1F8A033B1F88C
:10273C00A22380339B1A5A4202F07F0203F07F03DC
:10274C0058BF5342002BF0DC704700BFE80200205A
:10275C00114B82B0B3F8D82092B2ADF80420B3F884
:10276C00DC2092B2ADF80620B3F8DA20BDF80610E2
:10277C0091429CBF0022A3F8DA20B3F8DA10BDF81E
:10278C00042092B28A420FBF4FF0FF30B3F8DA2028
:10279C009B18187E02B07047E802002007B503684A
:1027AC008DF807105B6801220DF10701984703B003
:1027BC005DF804FB074BB3F8A203B3F8A033C01ABF
:1027CC007F30434203F07F0300F07F0058BF584234
:1027DC00704700BFE802002038B50446084D6A690E
:1027EC00C26023682046DB689847002807DAE26855
:1027FC006B699B1AA2689342F3D34FF0FF3038BD3C
:10280C00E80200202DE9F0410746884616461D4691
:10281C0073B100243846FFF7DFFF002805DB404585
:10282C0003D030550134A542F4D12046BDE8F081E7
:10283C001C46FAE7F8B506460D4617460024BC427E
:10284C0007D03046FFF7C8FF002802DB28550134BB
:10285C00F5E72046F8BDF8B505460E4617460024A8
:10286C00BC4207D02B68315D1B682846984708B1DD
:10287C000134F5E72046F8BD0B4B98420ED0B0F171
:10288C00804F0DD0A3F5943398420BD04FF6FF73C5
:10289C00064A904214BF1846032070470020704728
:1028AC000120704702207047002C014000080040B6
:1028BC00037F013B072B14D8DFE803F01104130D41
:1028CC001313130F022350F8040C00EB8303D3F8FB
:1028DC00F43033B118470323F5E70423F3E701235E
:1028EC00F1E77047B0F86230013303F03F03A0F812
:1028FC006230B0F86230B0F85E0098424FF0FF30B2
:10290C0018BF00207047037C2BB1B0F8F220B0F850
:10291C00F6309A42FBD17047B0F8F030B0F8F420A2
:10292C0093421FBFD0F8E820D25C013303F03F0381
:10293C001ABFA0F8F03010464FF0FF307047B0F8D7
:10294C00F420B0F8F03093421ABFD0F8E820D05CF5
:10295C004FF0FF307047B0F8F430B0F8F000181AB0
:10296C0000F03F00704708B5074B2BB10748FFF745
:10297C00F2FF08B1AFF30080054B23B1FFF76AFDFE
:10298C0008B1AFF3008008BD0000000090060020E5
:10299C000000000038B5044628B390F85120124BC3
:1029AC0003EB8203D3F8A80490F8393090F83A205E
:1029BC00134303F02203222B15D0214611F8525F4A
:1029CC00FFF79EFBB4F86030B4F85C20013303F0E1
:1029DC003F03934207D0B4F86020616D92B29BB272
:1029EC008D54A4F8603038BDE8020020034B5969BF
:1029FC005A69521A8242FBD3704700BFE80200208A
:102A0C00222888BF4FF0FF320D4B98BF33F91020AE
:102A1C00C2F30311042902D900239B68FFDE03EBE8
:102A2C008101896C02F00F02886803EB8203C043BA
:102A3C00DB6D00EA132080B2B0FA80F040097047D9
:102A4C00F8DC00080023F0B51F464E1C050FECB255
:102A5C00092D94BF3034373401F8134006F8137045
:102A6C000133DCB2A2424FEA0010EFD8F0BD08B53A
:102A7C000248FFF713FD024808BD00BFA0E10008A3
:102A8C00C803002008B50248FFF708FD014808BD3F
:102A9C00BEE10008C80300201A2310B50B80094BB7
:102AAC00186808331B68C0180AD0074B08221C682A
:102ABC000649FFF7C7FF042205492046FFF7C2FF6E
:102ACC00044810BDE8F7FF1FECF7FF1F02000020C1
:102ADC00120000200000002008B50248FFF7DEFCC1
:102AEC00014808BDD9E10008C803002008B520B989
:102AFC000348FFF7D3FC034808BD0348F9E700BFC0
:102B0C00ECE10008C80300200BE200080423014894
:102B1C000B8070471C000020122301480B8070476B
:102B2C002000002008B5D0F8B4325B68984700202C
:102B3C0008BD08B5D0F8B4320BB9022008BD1B682B
:102B4C0098470028FAD0F8E7212811D0222822D063
:102B5C0020280BD1194B0A685A630A7983F838205C
:102B6C004A7983F839208A7983F83A200020704713
:102B7C00124A536B180A0B704870180C1B0ECB7052
:102B8C0092F8383088700B7192F839304B7192F89A
:102B9C003A308B71EAE78A78094B02F00102C3F8EC
:102BAC00B424D3F8B42412B10022C3F8B82493F897
:102BBC00BC24013283F8BC24D8E700BF00000020FD
:102BCC00E80200200020704738B50025C023012200
:102BDC000A4CA4F8A253A4F8A053A4F8DA50A4F811
:102BEC00D850A4F8DC30064B83F83C20FFF7F3FBFD
:102BFC00D4F87837C3F80402284638BDE802002020
:102C0C00000000200A230380004870474000002089
:102C1C0043230380004870474C000020432303806B
:102C2C000048704790000020432303800048704701
:102C3C00D4000020D0F8BC3210B56BB1D0F8B8423B
:102C4C0094F80002FF2807D09B6894F801222146D3
:102C5C009847FF2384F80032002010BD10B52424BF
:102C6C00D0F8C02201F00F0104FB0121D0F8B832DA
:102C7C00B1F8842203F50371C3F80C22D0F8BC22FE
:102C8C00D3F80402D2689047002010BD10B403683A
:102C9C0085B01C6814F001041ED0002200921A6842
:102CAC0000925B680093009B042835D090F84D206F
:102CBC001B4B03EB8203D3F8A82492F8393092F81B
:102CCC003A20134303F02203222B25D000F14E01AE
:102CDC0005B010BCFFF714BA196811F0020106D048
:102CEC0001941A6801925B680193019BDCE71A68F6
:102CFC0012F0040206D002911A6802925B680293E9
:102D0C00029BD1E719680907CED503921A68039282
:102D1C005B680393039BC7E705B010BC704700BF0B
:102D2C00E8020020C36D1F2BDEBFC36D0133C365EA
:102D3C0090F88930012B0ED1C16D90F83D3003F025
:102D4C002803282B07D190F83C30012B03D00144E9
:102D5C006831FFF7D1BA704703681D4A84B09342BB
:102D6C000BD11C4B9A6942F400629A619B6903F483
:102D7C0000630093009B04B07047B3F1804F0BD1FC
:102D8C0003F50433DA6942F00102DA61DB6903F01E
:102D9C0001030193019BEEE70F4A93420AD10D4BBD
:102DAC00DA6942F00202DA61DB6903F00203029392
:102DBC00029BE0E7094A9342DDD1064BDA6942F007
:102DCC000402DA61DB6903F004030393039BD2E78B
:102DDC00002C01400010024000040040000800409C
:102DEC000D4B82B0DA69D20008D4DA6942F0805215
:102DFC00DA61DA6902F080520192019A0121074AE4
:102E0C001160DA6942F00062DA61DB6903F0006399
:102E1C000093009B02B070470010024020000E424D
:102E2C00884204D018B100290CBF01460021084685
:102E3C007047431C02D1002070470C31B1F90030AF
:102E4C005A1CF8D09842F8D14868704786B00428CC
:102E5C0041D8DFE800F003101C2834001F4B204839
:102E6C009A6942F004029A619B6903F0040301938E
:102E7C00019B06B07047194B1A489A6942F0080238
:102E8C009A619B6903F008030293029BF1E7134BD1
:102E9C0015489A6942F010029A619B6903F010037D
:102EAC000393039BE5E70D4B10489A6942F020020F
:102EBC009A619B6903F020030493049BD9E7074BA9
:102ECC000B489A6942F040029A619B6903F04003F7
:102EDC000593059BCDE70020CBE700BF0010024017
:102EEC0000080140000C014000100140001401409A
:102EFC0000180140F0B504462C4B8FB002932C4BBC
:102F0C000E4605932B4B02A906A80493FFF7EBFA88
:102F1C00222C8EBF4FF0FF37274B33F91470C7F3B9
:102F2C000310FFF793FF054658B3244B22499A69C7
:102F3C00BCB242F001029A619B6901EB860103F07D
:102F4C0001030193019BA4F10D03012BD1F89C60AB
:102F5C001FD81B4B5A6822F0E06242F080625A6024
:102F6C0006A90AA8FFF7BFFA012104F00F04A1403B
:102F7C00284633460AAA89B2FFF7CDFA0AA8FFF70A
:102F8C00C1FA06A8FFF7BEFA02A8FFF7BBFA0FB00A
:102F9C00F0BD0F2F03D0A4F11303012BE0D8084B85
:102FAC005A6822F0E06242F00072D8E7A18F000864
:102FBC00B5210008B9210008F8DC00080010024017
:102FCC000000014010B50024013300F580605B1057
:102FDC0000EB42029C4200D110BD52F8240021F8B3
:102FEC0014000134F6E70A787AB9038823F4804395
:102FFC0023F0400383F4805383F0100343F4004325
:10300C0043F080030380002070474B7873B130F895
:10301C00223023F4E04323F0400383F0100343F405
:10302C00004343F0800320F82230ECE730F82230E4
:10303C0023F4804323F0700383F48053EFE72423BD
:10304C0011F0800F10B5D0F8C0421ABF01F07F010B
:10305C0003FB014103FB01414FF0010314BF283175
:10306C0001F51A718B7094F8A8249A4207D084F851
:10307C00A8342068FFF7B7FF002384F8A834002099
:10308C0010BD10B504468021FFF7D9FF2046BDE8DE
:10309C0010400021D3E74B7870B5012B0D785DD132
:1030AC008B690A698E7A934294BF00249C1A8C61B6
:1030BC0088BF134600F58064EA00EEB9B0F85050B2
:1030CC002A44023244F812308A889BB201334D698B
:1030DC005B1004EB4204F3B98B7A13BB0A7830F81B
:1030EC00223023F4E04323F0400383F0300343F415
:1030FC00004343F0800321E030F8255015F0400FD9
:10310C00B0F850502A4402F1020244F8123014BFB5
:10311C000A89CA88D9E735F8022B013B24F8042B1D
:10312C00D9E74B7873B90A7830F8223023F0F003E2
:10313C001B051B0D43F4004343F0C00320F8223061
:10314C00002070BD012BFBD10A7830F8223023F01F
:10315C00F0031B051B0D43F44043CAE730F8253040
:10316C0023F4804323F0700383F4405343F400436F
:10317C0043F0800320F82530E2E710B58C7A4A78CA
:10318C000B78B4BB012A30F823201CD152060BD586
:10319C0030F8232022F0F0021205120D42F4004206
:1031AC0042F0C00220F823200A7830F8223023F4B1
:1031BC00E04323F0400343F4004343F0800320F842
:1031CC002230002010BD54040BD530F8232022F0FF
:1031DC00F0021205120D42F4404242F0800220F837
:1031EC0023200A7830F8223023F4804323F0700334
:1031FC00E1E7012A30F8232042D152040BD530F8F4
:10320C00232022F0F0021205120D42F4404242F04B
:10321C00800220F823200A7830F822305C060BD587
:10322C0030F8223023F0F0031B051B0D43F4004350
:10323C0043F0C00320F822300A7830F8223023F013
:10324C00F0031B051B0D43F4404343F0800320F8AF
:10325C00223048F280020C7830F8243023F4E0431A
:10326C0023F04003134320F82430097830F8213040
:10327C0023F4804323F070031A4320F82120A0E7A5
:10328C0052040BD530F8232022F0F0021205120D57
:10329C0042F4404242F0800220F823200A7830F8B1
:1032AC0022305B060BD530F8223023F0F0031B05DF
:1032BC001B0D43F4004343F0C00320F822300A787E
:1032CC0030F8223023F0F0031B051B0D43F40043B0
:1032DC0043F0C00320F8223048F280020C7830F81A
:1032EC00243023F4804323F07003134320F824305C
:1032FC00097830F8213023F4E04323F04003BBE796
:10330C0010B590F83A200346222A37D10469826A14
:10331C0001688068B0F5805F11D149685CB9C1F370
:10332C00080122F8021B9A62DC8D013CA4B2DC85F8
:10333C0074B1002010BDC9B222F8011BF3E7501C78
:10334C00496898620CB91170EEE701F07F01FAE759
:10335C001A68181FD16821F02001D160D16821F4BE
:10336C008071D160516921F0010151614FF020024F
:10337C0083F83A20DDD01B6C9847DAE70220D9E7B6
:10338C000023406AC385C38480E4036810B51A69BE
:10339C00044692070CD5DA68910709D56FF0020242
:1033AC001A61012202779B69FFF782FA00232377C7
:1033BC0023681A6952070DD5DA6850070AD56FF0E1
:1033CC0004021A610222204622779B69FFF770FAE9
:1033DC000023237723681A6911070DD5DA681207C1
:1033EC000AD56FF008021A61042220462277DB69A5
:1033FC00FFF75EFA0023237723681A69D0060DD5F0
:10340C00DA68D1060AD56FF010021A61082220463C
:10341C002277DB69FFF74CFA0023237723681A69BC
:10342C00D2070BD5DA68D00708D56FF0010254F833
:10343C00040C1A61D0F8F43003B1984723681A6968
:10344C00110605D5DA68120644BF6FF080021A61C6
:10345C001A69540605D5DA68500644BF6FF040026D
:10346C001A611A69910605D5DA68920644BF6FF0A5
:10347C0020021A6110BD30B5172509234D430229CE
:10348C0000F5FA64B5FBF3F517D8043200F2CF73EC
:10349C0010194FF4C872B3FBF2F2284400EB9300FE
:1034AC0010446422B3FBF2F3C01A0723B0FBF3F30E
:1034BC00C3EBC303C01AC0B230BD4FF4C873901C29
:1034CC0064222044B4FBF3F3284400EB9400B4FBD7
:1034DC00F2F41844001BE8E7036873B5D90720D54C
:1034EC00334BDA69D20034D40124DA6942F08052C9
:1034FC00DA61DA6902F080520192019A2D4A116860
:10350C00CE0528D51A6A12F4407234D11A6A416871
:10351C0022F440720A431A621CB1DA6922F080521A
:10352C00DA6103689A0706D5214984684A6822F44F
:10353C00404222434A6013F010031FBF1C4AC1686B
:10354C00536800201DBF23F480030B4353601846BF
:10355C000FE00024D2E7116841F480711160164924
:10356C004E691568ED05CDD44D69AD1B642DF8D9A8
:10357C00032002B070BD416801F440719142C5D086
:10358C0001260E491A6A0E60002622F440750E6060
:10359C001D62D507BAD541F28836074A5569196AB2
:1035AC008907B3D45169491BB142F8D9E0E700BF90
:1035BC000010024000700040E8020020400442422B
:1035CC00064B5A68064BC2F302221344054A93F881
:1035DC00B030D2F81801D840704700BF001002403C
:1035EC00F8DC00080000002073B50468E5070FD470
:1035FC00A10758D403681B0700F18A8003685E0793
:10360C0000F1B080C369002B40F01881002027E046
:10361C00844B5A6802F00C02042A07D05A6802F054
:10362C000C02082A0AD15A68D20307D51B689B03DF
:10363C00DED54368002BDBD1012011E041687A4ACA
:10364C00B1F5803F0ED1196841F48031196055698C
:10365C0019688E03CCD45169491B6429F8D903200D
:10366C0002B070BD81B9196821F4803119601968F4
:10367C0021F480211960556919688903B8D55169FD
:10368C00491B6429F8D9EAE7B1F5A02F196803D1D1
:10369C0041F480211960D6E721F480311960196852
:1036AC0021F48021D2E75F4B5A6812F00C0F07D03F
:1036BC005A6802F00C02082A10D15A68D2030DD4B1
:1036CC001A68960702D50269012AB5D11A684169B0
:1036DC0022F0F80242EAC1021A608BE70469524AEE
:1036EC00524954B101240C60546919688D07EDD40A
:1036FC005169091B0229F8D9B1E70C6054691968A2
:10370C0089077FF577AF5169091B0229F7D9A6E71D
:10371C0084694449444B464ACCB1012414605C6929
:10372C004A6A95070ED54FF4FA52424BD3F818312A
:10373C00B3FBF2F3019300BF019B5A1E0192002BC5
:10374C00F9D15BE75A69121B022AE9D987E71460A1
:10375C005C694A6A92077FF551AF5A69121B022ABB
:10376C00F7D97CE72F4BDA69D60024D40124DA6927
:10377C0042F08052DA61DA6902F080520092009ACB
:10378C002D490A6812F4807F274A16D0C168012996
:10379C0020D1196A41F0010141F28835196256694C
:1037AC00196A890738D5002C3FF42CAFDA6922F05E
:1037BC008052DA6126E70024E2E70D6845F4807553
:1037CC000D6056690D68ED05E0D45569AD1B642D8F
:1037DC00F8D944E791B941F28836196A21F0010110
:1037EC001962196A21F0040119625569196A89076D
:1037FC00D9D55169491BB142F8D930E70529196A65
:10380C0003D141F004011962C3E721F001011962EF
:10381C00196A21F00401BFE75169891BA942BFD97C
:10382C001DE700BF00100240E802002000004242E9
:10383C0080044242000000200070004026494A6883
:10384C0002F00C02082A0A4635D00021234D022B27
:10385C002960234B25D15C6911688E011CD4016A47
:10386C00B1F5803F05D15468866824F400343443A4
:10387C0054605468406A24F4741401432143516029
:10388C0001212960586911688C013FF5BFAE596957
:10389C00091A0229F7D9E2E65969091B0229DBD971
:1038AC00DDE65869116889017FF5B0AE5969091ACE
:1038BC000229F7D9D3E6012B3FF4BEAE4B68026A5E
:1038CC0003F4803191427FF4B7AE426A03F4701373
:1038DC0093423FF49BAEAFE60010024060004242C0
:1038EC00E802002038B501F07F0424210025614353
:1038FC004418C4E90F236564283101440068FFF7BC
:10390C00CAFB284638BDF8B5D0F8B872034607B3E1
:10391C00142202FB0102D6698EB12424D0F8C00215
:10392C0004FB0105AD6BB6FBF5F405FB146434B96F
:10393C00D46123462246FFF7D5FF2046F8BD00246C
:10394C00D3F8BC32C7F8144218690028F6D0804767
:10395C00F3E70220F2E708B50423C0F89432002301
:10396C00D0F8C0021A461946FFF7BCFF002008BD6C
:10397C0038B5054639BBD0F89432032B1CD1D0E9AD
:10398C00581399420BD9C91A8B42C0F860118CBFDD
:10399C008BB29BB2002100F022F8002038BDD0F889
:1039AC00B4321B6923B190F89C22032A00D19847AA
:1039BC002846FFF7D0FFF0E7052BEED1C5F894129F
:1039CC00FFF73DFBE9E7D0F8B4329B692BB190F8D7
:1039DC009C22032A01D19847DFE70220DEE72DE97C
:1039EC00F341D0F8C0422420484300F51A76204415
:1039FC00C0E99F230023C0F884322644206831B9E3
:103A0C003146FFF748FB002002B0BDE8F08194F886
:103A1C008C3230F823309BB2ADF80430BDF8043052
:103A2C00580626D5B4F8AE524FF6FE774FF0000884
:103A3C000DB1BD4220D194F89632002BE3D1D4F8CD
:103A4C00A032002BDFD0D4F8A432002BDBD094F8BA
:103A5C008C12226832F8213023F4804323F0700357
:103A6C0083F4405343F4004343F0800322F82130A5
:103A7C00C9E7B4F8AC52D7E7D4F8A032002BC2D0C7
:103A8C00D4F8A432002BBED0BDF8042051064FF65A
:103A9C00FF7147BFA4F8AE72B4F89422A4F8AC72CC
:103AAC00B4F892228D4206D09D4205D93146206849
:103ABC00FFF799FAA7E700252B46D4F8A012206847
:103ACC00FFF780FAD4F8A8322B44C4F8A832D4F803
:103ADC00A0322B44C4F8A032D4F8A4325B1BC4F837
:103AEC00A4321BB1D4F89C329D420AD2242394F800
:103AFC008C12D4F8DC0403FB0143D3F87C22FFF7CF
:103B0C0037FF94F88D3273BB94F88C12226832F81C
:103B1C00213023F0F0031B051B0D43F4004343F04D
:103B2C00C00322F82130BDF804305A064CBF04F211
:103B3C00AE2304F52B73D3E85F2F92B2ADF80620B9
:103B4C00BDF8062097421ED094F88C22236833F8D7
:103B5C0022309BB2ADF80430BDF804305B0617D4AC
:103B6C00B4F8AC5264E7012BDDD194F88C122268C6
:103B7C0032F8213023F0F0031B051B0D43F44043B6
:103B8C0043F08003CDE7C3E8528F002AD3D1DBE7A3
:103B9C00B4F8AE524CE738B5104D95F83C300BB13B
:103BAC00002038BDFEF717FC02460028F8D001248F
:103BBC000B4885F83C40D0F87837C3F8042290F8CD
:103BCC00D03443B94FF40073214600F59860FFF7E9
:103BDC0006FF2046E5E74023F6E700BF0000002083
:103BEC00E80200202DE9F04F0746894690464FF039
:103BFC00000A394C1E469DB2636985B0C36004F15E
:103C0C00180BB4F8D8309BB2ADF80C30B4F8DC30EB
:103C1C009BB2ADF80E30B4F8DA30BDF80E209A42F3
:103C2C0098BFA4F8DAA0B4F8DA30BDF80C209A42A8
:103C3C002CBFBDF80C00BDF80E00B4F8DA30B4F8A7
:103C4C00DA10C01A80B2A84228BF28460023594473
:103C5C009AB2824210D3B4F8DA3003449BB2A4F87F
:103C6C00DA30B4F8DA30BDF80E209A4201D8A4F854
:103C7C00DAA00246002313E011F803C0E1451ED17F
:103C8C00B4F8DA30013313449BB2A4F8DA30B4F848
:103C9C00DA30BDF80E10994201D8A4F8DAA001234D
:103CAC00CDE90023FFF777FF009A019BAD1AADB267
:103CBC00904443B1761B304605B0BDE8F08F08F850
:103CCC0003C00133C4E7002DF5D0FB686269D21A3A
:103CDC00BB689A4295D3EDE7E802002013B51B4B65
:103CEC00B3F8D82092B2ADF80420B3F8DC2092B22D
:103CFC00ADF80620B3F8DA10BDF8062092B28A426D
:103D0C0004BF0022A3F8DA20B3F8DA10BDF80420BF
:103D1C0092B28A4216D0B3F8DA2092B2511C89B210
:103D2C00A3F8DA101A44147EB3F8DA20BDF80610A2
:103D3C00914202D80022A3F8DA20FFF72CFF20468C
:103D4C0002B010BD4FF0FF34F7E700BFE8020020CF
:103D5C0010B5264C0B6894F8BC24032A1DD9032BF0
:103D6C0018D90278312A15D14278452A12D1827895
:103D7C00412A0FD1C278462A0CD1BFF34F8F1C4970
:103D8C001C4BCA6802F4E0621343CB60BFF34F8F45
:103D9C0000BFFDE7002284F8BC24B4F8D8201344FB
:103DAC009BB2A4F8D830B4F8D830B4F8DC209A42DE
:103DBC009CBFC023A4F8DC30B4F8D8300E4ABF2B1B
:103DCC004FF0000388BFA4F8D83082F83C30FFF7DE
:103DDC00E2FE034638B9D4F8782722B10246012115
:103DEC000648FFF7FCFD002010BD00BFE8020020D4
:103DFC0000ED00E00400FA0500000020A8070020F8
:103E0C0008B513460222C0E90733C0F894220A46CB
:103E1C00D0F8C0020021FFF765FD002008BD2DE998
:103E2C00F74300270A78054612F060040E46D0F8D6
:103E3C00B8828DF80570ADF806702ED0202C4BD1C1
:103E4C00CC884B7814B3120611D5D0F8BC2241465D
:103E5C00D2F8089018462246C847F28841462846B0
:103E6C00FFF7CEFF3C46204603B0BDE8F08388F850
:103E7C000032032388F801424246C0F89432C0E96C
:103E8C00574423463946FFF7AAFDEBE7D0F8BC228E
:103E9C00184695682246A847E5E74E780A2E0DD0BD
:103EAC000B2E15D0C6B990F89C32032B14D10222DC
:103EBC000DF10601FFF7A4FF3446D4E790F89C32CD
:103ECC00032B09D101220DF10501FFF799FFCAE778
:103EDC0090F89C32032BC6D02846FFF7D2F8022468
:103EEC00C1E738B5D0F894320446022B0A4642D1C9
:103EFC00D4E90803984216D9C31A236200219BB255
:103F0C00D4F8C002FFF7EEFC002320461A461946EF
:103F1C00FFF765FD94F8A0320020012B04BF0023AD
:103F2C0084F8A03238BDE269B2FBF3F503FB15252A
:103F3C007DB993420DD8D4F898329A4209D22B46C7
:103F4C002A462946D4F8C002FFF7CCFCC4F8985294
:103F5C00DAE7D4F8B432DB682BB194F89C22032A4C
:103F6C0001D12046984780212046FFF768F80523A9
:103F7C00C4F89432C8E733F00403CBD18021FFF7A7
:103F8C005EF8C7E7194810B4B0F8A033B0F8A22314
:103F9C009A4295BFB0F8A033B0F8A233B0F8A22380
:103FAC00C3F1800398BF9B1A9BB2A0F8A433B0F85E
:103FBC00A22391B2BBB10E4A0A444169C0F8B814AD
:103FCC00D0F87817D1F81442C1F80822C1F8103291
:103FDC004CB90124C0F80435C1F81442D0F880075C
:103FEC00822110BC7EE410BC704700BFE8020020A8
:103FFC0008060020002208B50A4BB3F8A213C3F838
:10400C00B824B3F8A4230A4402F07F02A3F8A22335
:10401C00D3F87837D3F814320BB9FFF7B3FF00207D
:10402C0008BD00BFE8020020F0B5242411F0800F79
:10403C001BBF01F07F0104FB010104FB01012831CE
:10404C0008BF01F51A710A61CB7090F8A834012BE6
:10405C0000F09081012380F8A834CC7803680A78AA
:10406C00032C0DD8DFE804F00260505733F82240DF
:10407C0024F4EC4424F0700444F4007423F822403B
:10408C0040F60F750C7833F824202A40224342F472
:10409C00004242F0800223F824208E7A03F58064DB
:1040AC000A78002E40F088808E884F787608012F91
:1040BC004FEA46064FEAC2023FD1B3F850703A4479
:1040CC0044F812600C7833F82420560608D533F8DF
:1040DC002420154045F4004545F0C00523F8245034
:1040EC00097833F8212022F4E04222F0400282F0D9
:1040FC00200242F4004242F0800223F821200023E7
:10410C0080F8A8341846F0BD33F8224024F4EC446F
:10411C0024F07004B2E733F8224024F4EC4424F089
:10412C00700444F4C064A9E733F8224024F4EC444E
:10413C0024F0700444F48064A0E7B3F850502A448F
:10414C00043244F81260B3F850500E690A78063500
:10415C003E2E05EBC20527D9C6F34F17F20604BF56
:10416C0007F1FF3297B2844A42EA872292B244F8AE
:10417C0015200C7833F8242052040BD533F8242066
:10418C0022F0F0021205120D42F4404242F080027D
:10419C0023F82420097833F8212022F4804222F0DD
:1041AC00700282F40052A4E7C6F34F02F60744BF34
:1041BC00013292B29202D9E733F8226026F4F876F3
:1041CC003605360D46F4014646F0800623F822608B
:1041DC00B3F850600A7806EBC206CA88520852003F
:1041EC0044F81620B3F850200E78043202EBC602C5
:1041FC000E897608760044F812604A780E78012A07
:10420C0036D133F82620570408D533F826202A4017
:10421C0042F4404242F0800223F826200C7833F816
:10422C00242055060BD533F8242022F0F002120579
:10423C00120D42F4004242F0C00223F8242048F24E
:10424C0080040D7833F8252022F4E04222F040025D
:10425C0082F03002224323F82520097833F82120FC
:10426C0022F4804222F07002144323F8214046E7E6
:10427C00A2B9B3F85050023505EBC6050E693E2EB7
:10428C005DD9C6F34F17F20604BF07F1FF3297B2A0
:10429C00394A42EA872292B244F815204A780E78BD
:1042AC00002A5CD1B3F850200D6906323E2D02EB8A
:1042BC00C6064CD9C5F34F17EA0604BF07F1FF3207
:1042CC0097B22D4A42EA872292B244F816200C7813
:1042DC0033F8242055040BD533F8242022F0F002B7
:1042EC001205120D42F4404242F0800223F82420C1
:1042FC000C7833F8242052060BD533F8242022F006
:10430C00F0021205120D42F4004242F0C00223F8F2
:10431C00242048F280040D7833F8252022F48042C2
:10432C0022F0700282F44052224323F825200978AF
:10433C0033F8212022F4E04222F0400294E7C6F345
:10434C004F02F60744BF013292B29202A3E7C5F3C3
:10435C004F02EF0744BF013292B29202B4E7012A36
:10436C00B5D1B3F850200D69023202EBC60244F805
:10437C001250ACE70220C6E60080FFFF90F8A8348C
:10438C00012B15D002680321B2F8403023F474538A
:10439C005B045B0CA2F840300123A2F840300023F0
:1043AC00A2F84430A2F8401080F8A83418467047A0
:1043BC0002207047F0B5DFF84CC006680F0C012FD7
:1043CC000CBF7469B46921EA0404A4B2B4FA84F48D
:1043DC006409A24201D0002013E0DCF81440059DD2
:1043EC00641B9C42EBD900232022036380F83D2000
:1043FC0080F83E30026C80F83C3042F020020264BF
:10440C000120F0BDE802002090F83D30202B14D1A3
:10441C00282380F83D30036800201A68D2075EBF5D
:10442C001A6842F001021A601A6842F480621A603B
:10443C005A6842F440725A60704702207047036E0B
:10444C0010B5044643B190F88920012A04D1C26DFD
:10445C0012B1C16D68309847022384F8893000236B
:10446C002046E365BDE81040CEE7002370B4406AF7
:10447C00026890F83D101468466B856B24F48064D8
:10448C00B362AB62146043851468736324F0010457
:10449C006B63146090F83D40C9B2602C07D12022A8
:1044AC0080F83D2080F83E30036470BC704701F00A
:1044BC002801282910D1146844F0010414601468F0
:1044CC0044F480641460036380F83D1090F88A30E3
:1044DC00002BEAD170BC97E7202280F83D2080F8B1
:1044EC003E30F3E708B590F82130022B03D00423BB
:1044FC008363012008BD03681A6822F00E021A605B
:10450C001A6822F001021A60174A93421CD0143226
:10451C0093421BD0143293421AD0143293421AD0C5
:10452C00143293421AD0143293420CBF4FF48013BE
:10453C004FF080730D4A53604FF480730384436BC8
:10454C007BB198470020D5E70123F3E71023F1E76F
:10455C004FF48073EEE74FF48053EBE74FF4803366
:10456C00E8E71846C6E700BF08000240000002401A
:10457C00036870B51A6804461607D9685D6907D1D7
:10458C00960663D58D0661D5BDE87040FEF7B8BEC2
:10459C0005F0010001F49075054357D0D60705D5F9
:1045AC00CD0542BFE36B43F00103E363530704D52E
:1045BC0018B1E36B43F00203E363960704D518B11B
:1045CC00E36B43F00403E363150704D518B1E36B05
:1045DC0043F00803E363E36B002B36D0900604D55D
:1045EC00890602D52046FEF78BFE23685A69E56BD7
:1045FC0002F0400205F00805154322D0DA6822F4D7
:10460C009072DA605A6922F001025A61202284F811
:10461C003A205A6952060FD55A69606B22F0400253
:10462C005A6148B12C4B4363FFF75CFF68B1606B78
:10463C00BDE87040436B18472046BDE87040FEF75C
:10464C0025BB2046FEF722FBE56370BD160628D578
:10465C000D0626D594F83920212AF6D1A168226AB4
:10466C00B1F5805F18D11188C1F308015960216937
:10467C0081B902322262E28C013A92B2E284002ABF
:10468C00E3D1DA6822F08002DA60DA6842F04002A4
:10469C00DA60DAE70132EDE7511C216212785A60D8
:1046AC00E9E75006D1D54A06CFD5DA68201F22F0AB
:1046BC004002DA604FF0200384F83930C5D0636CC7
:1046CC0098470130C1D0B4F85E30616D2046BDE82A
:1046DC0070401944FDF760BE8D33000810B590F89A
:1046EC003D2090F83E1004461029D2B2036812D136
:1046FC00222A10D1196821F4006119605968090542
:10470C0004D4602A1CBF202284F83D20002222639E
:10471C0084F83E2007E002F028012829EED100227F
:10472C00226384F83D105A6812F400624CD05A6827
:10473C00606B22F400625A6090F82130012B374BE9
:10474C0028D04363FFF7CEFE50B12268606B13682C
:10475C0023F001031360202384F83D30436B98470A
:10476C0094F83D30226CDBB2520755D5282B53D12F
:10477C0022682046536823F4E0635360284B2022C0
:10478C00E3620023236384F83D2084F83E30BDE8C7
:10479C00104054E6A06B4363FFF7A4FE0028DFD063
:1047AC0023685A69520605D51A69636A1A70636AD6
:1047BC00013363622268A06B136823F0010313605A
:1047CC00202384F83D30C9E794F83D10602912D1BC
:1047DC00202184F83D1022645A69500605D51A69C7
:1047EC00636A1A70636A013363622268136823F088
:1047FC0001031360B4E75A69510605D51A69636A57
:10480C001A70636A0133636294F88A30002BA7D163
:10481C002046FFF7F9FDA3E710BD00BF7744000861
:10482C000000FFFFF8B5036804465F695E68C7F3D4
:10483C00002555B1C6F300253DB16FF480720125FA
:10484C005A611A6842F400421A60B90506D5F2059D
:10485C0042BF6FF4007245F002055A61780537D5F6
:10486C00F10535D594F83EC0618D94F83D20BCF12E
:10487C00200F89B2D2B2206B58D1002956D102F048
:10488C00F701212903D0282A50D121284ED194F8A0
:10489C003D20E16AD2B2082901D0202929D1282A49
:1048AC0027D12B4A2046E2625A6822F4E0625A6011
:1048BC006FF480625A611A6822F480621A600023D5
:1048CC002022236384F83D2084F83E30FFF7B7FDA7
:1048DC003A0539D5F30537D56FF40062236845F0F6
:1048EC0008055A61236C20461D432564BDE8F84039
:1048FC00F4E6212A16D11649E16222630021202216
:10490C0084F83D2084F83E105A6822F4E0625A6024
:10491C006FF480625A611A6822F480621A6084F81B
:10492C008810D5E76FF480625A61D1E76FF480622A
:10493C005A6194F83E2045F00405102A02BF1A680B
:10494C0042F400721A60C3E7002DCBD1F8BD00BF52
:10495C000000FFFF70B5044603688EB05A68C56A44
:10496C0090F83E0094F83D10C0B21028CEB202D0A0
:10497C00402840F0A98299695869C60707D4B5F553
:10498C002A0F02D0B5F12A4F52D10EB070BD950549
:10499C004ED5E26AB2F52A0F0CD10122E26294F8EC
:1049AC003E20402A11D1226D52B9626C02F0FE02F7
:1049BC001A61EAE7E26AB2F12A4FF0D10822EDE778
:1049CC00626C42F00102D2B2F2E72269B2F5804F7A
:1049DC001BD194F83D20212A626C12D102F0FE0208
:1049EC001A61626B12B9A16B0029CED0926A1AB906
:1049FC00A26B926A002AC8D05A6842F400625A60CC
:104A0C00C3E742F00102D2B2EAE7226D32B9626C1E
:104A1C00D21102F0060242F0F002C9E7226D012A1F
:104A2C00B3D1626CD21102F0060242F0F102BFE780
:104A3C00060703D5950501D5626CE4E7860740F1BE
:104A4C00E680950540F1E38094F83E10E26A256B10
:104A5C0094F83D00C9B2222840F0D180206D40B9B5
:104A6C00402906D10B905A690B929B690B930B9BB7
:104A7C008BE7216D81B92069B0F5404F0CD10A91BB
:104A8C005A690A929A690A920A9A1A6842F48072CE
:104A9C001A60236D013328E0618D89B251B90991F7
:104AAC005A6909929A690992099A1A6842F4007231
:104ABC001A6019E0618D89B201294AD112F5803F43
:104ACC001CD11A6822F480621A605A6812F40062CF
:104ADC000DD01A6822F480621A60002208925A697A
:104AEC0008929B690893089B002323654DE7079266
:104AFC005A6907929A690792079AD6E7082A1CD036
:104B0C00202A1AD0122D0DD1012A16D11A6822F49E
:104B1C0080621A60002206925A6906929B6906937B
:104B2C00069BE1E7102AF1D8A04921FA02F2D60738
:104B3C00ECD51A6842F48062EBE71A6822F48062C2
:104B4C001A60002205925A6905929A690592059A93
:104B5C00ABE7618D89B2022933D1102A05D893496C
:104B6C00D140C94311F0010120D0196841F4006112
:104B7C00196000210491596904919969049104996F
:104B8C00196821F48061196059680D05ACD512F5CE
:104B9C00803F06D0511E1F29A6D8854ACA40D0078F
:104BAC00A2D55A6842F480525A609DE7186840F4C6
:104BBC008060186003915969039199690391039975
:104BCC00E2E7196841F480611960596809050ED54E
:104BDC0012F5803F07D0013A1F2A08D8744921FAF0
:104BEC0002F2D20703D55A6842F480525A6000226E
:104BFC0002925A6902929B690293029B74E700220B
:104C0C0001925A6901929B690193019BBDE611F0D7
:104C1C00040F596800F0A0800E053FF5B6AE0506EE
:104C2C00C0F3800166D5500564D5002965D194F890
:104C3C003D20258D94F83E10D2B2C9B2E06AADB9D0
:104C4C00212A15D1082875D0202873D010F5803F63
:104C5C0070D05A6822F4E0625A6011232363002357
:104C6C0084F83E30202384F83D308EE6212A05D08E
:104C7C0040297FF48AAE222A7FF487AE628D92B2ED
:104C8C001AB95A6822F48062B9E694F83E20402A98
:104C9C0026D1226D62B9E26C012AA26C04D1D2B287
:104CAC001A61236D023320E7C2F307221A61F0E682
:104CBC00226D012A02D1A26CD2B2F7E7226D022A30
:104CCC007FF463AE94F83D20222A04D11A6842F492
:104CDC0080721A6059E694F83D20212A7FF455AE73
:104CEC00626A12F8011B19616262638D013B9BB20F
:104CFC0063854AE600293FF448AE92057FF545AE40
:104D0C00E16A94F83D20212A7FF43FAE628D92B285
:104D1C00002AE5D108290DD020290BD011F5803FB0
:104D2C0008D0596821F4E06159601123236384F899
:104D3C003E2097E75A6822F4E0625A601A6842F4FF
:104D4C0000721A6000232022236384F83D2094F81B
:104D5C003E2084F83E3018E60E053FF516AE4506AB
:104D6C00C0F380014AD5500548D5002949D194F8A3
:104D7C003D20222A7FF409AE628D92B2032A19D902
:104D8C001A69636A1A70636A01336362638D013B4B
:104D9C009BB26385638D9BB2032B7FF4F6AD2268C7
:104DAC00536823F480635360EFE500BF14000100E7
:104DBC0081800080E06A02283FF4E7AD012A3FF6CB
:104DCC00E4AD1A6822F480621A605A6822F4E06238
:104DDC005A601A69636A1A70636A01336362638D7D
:104DEC00013B9BB26385202384F83D3094F83E3020
:104DFC0084F83E10402B65D12163C6E500293FF4B1
:104E0C00C4AD96057FF5C1ADE26A608D616A80B272
:104E1C00042809D15A6822F480625A601B690B700D
:104E2C00636A0133636260E7608D80B203280CD142
:104E3C005868042A20F480605860EFD0022AEDD024
:104E4C001A6822F480621A60E8E7608D80B202284A
:104E5C00E4D1012A01D0102A28D11A6822F48062E8
:104E6C001A601B690B70626A531C6362638D013B91
:104E7C009BB2638523681B695370636A2268013394
:104E8C006362638D013B9BB26385536823F440736B
:104E9C005360202384F83D3094F83E30402B4FF083
:104EAC00000384F83E300DD123636EE5042A01D053
:104EBC00022A03D11A6842F48062D1E71A6842F4DC
:104ECC000072CDE71223EFE7216C002967D0002197
:104EDC005869850740F1818095057ED5226C02B119
:104EEC00996994F83D2002F02802282A6ED15A685C
:104EFC000D0622F480625A604FF00003E0684CBF4C
:104F0C00228B82B2904284F83C307FF43EADC1F3E8
:104F1C008001002946D084F88930636E03B198472C
:104F2C0094F8882094F83D30D2B203F02803282B53
:104F3C007FF42BAD92B2002A3FF427AD94F83C30AD
:104F4C00012B3FF422AD012384F83C30236804F19B
:104F5C0068051968C80758BF19684FF020005CBF76
:104F6C0041F001011960196821F4006119602921CF
:104F7C0084F83D10002184F83E0021646285628D26
:104F8C00E0620C9122855A6965620C929A6984F8E8
:104F9C003C100C920C9A5A6842F4E0622FE5996925
:104FAC00586996E70123E16584F88930E16D94F83E
:104FBC003D3003F02803282B7FF4E7AC2046214436
:104FCC0068310EB0BDE87040FDF796B96FF0020283
:104FDC005A61002384F83C30D7E4C10640F1B38019
:104FEC00950540F1B08094F83D505A68EDB222F42A
:104FFC00E0625A6000220D925A690D921A6842F0D2
:10500C0001021A600D9A1A6822F480621A605A68BA
:10501C0011051FD505F0F702222A49D1A06B0268B1
:10502C00526892B26285628D92B21AB1226C42F0D1
:10503C00040222645A6822F400625A6090F821300B
:10504C00012B07D07A4B4363FFF74CFA10B1A06BDE
:10505C00436B9847638D9BB213B323685A6952070D
:10506C0009D51A69636A1A70636A01336362638DC6
:10507C00013B9BB2638523685A69560609D51A69A8
:10508C00636A1A70636A01336362638D013B9BB27E
:10509C006385638D9BB21BB1236C43F004032364C3
:1050AC00236C0BB320460EB0BDE87040FFF716BB67
:1050BC00606B0268526892B26285628D92B21AB1CC
:1050CC00226C42F0040222645A6822F400625A6094
:1050DC0090F82130012BBDD0554B4363FFF702FAFA
:1050EC000028B7D0606BB3E72A2D06D123632823A1
:1050FC00204684F83D30FDF715FE94F83D30282B02
:10510C000ED14C4B2022E36220460023236384F80B
:10511C003D2084F83E300EB0BDE87040FFF78FB9EB
:10512C00236B222B02D0222D7FF42FAC00232022C4
:10513C00236384F83D2084F83E3020460EB0BDE851
:10514C007040FDF7EFBD06F0F706212EC0F3800589
:10515C0035D1000627D5510525D53DBB94F83D002A
:10516C00628DC0B292B2002A3FF40FAC626A12F8A0
:10517C00015B1D616262628D013A92B26285628D41
:10518C0092B2002A7FF401AC29287FF4FEAB586858
:10519C0020F4806058602823266384F83D3084F81E
:1051AC008820FFF7F2BB002D3FF4EFAB95057FF5A0
:1051BC00ECAB628D92B2002A3FF4E7AB90E540066F
:1051CC0027D5510525D53DBB94F83D20618DD2B234
:1051DC0089B200293FF4D9AB1969636A1970636A03
:1051EC0001336362638D013B9BB26385638D9BB21C
:1051FC00002B7FF4CAAB2A2A7FF4C7AB2268536812
:10520C0023F48063536022232363282384F83D30E6
:10521C0093E7002D3FF4B9AB92057FF5B6AB628DE9
:10522C0092B2002A3FF4B1AB1A69636A1A70F7E5BF
:10523C00774400080000FFFF00280DDB0122430922
:10524C0000F01F0002FA00F0044A203342F8230059
:10525C00BFF34F8FBFF36F8F704700BF00E100E0CB
:10526C0038B501230446B0F8F2200374D31803F0C8
:10527C003F03B4F8F6008342FBD0D4F8EC00194D90
:10528C008154A4F8F23094F8E53005EB8303D3F89D
:10529C00A82492F8393092F83A20134303F02103F2
:1052AC00212B1CD0104B94F9E400C4F8DC30FFF730
:1052BC00C3FF94F8E520B4F8F630D4F8EC1005EB05
:1052CC0082051944D5F8A804FDF766F894F9E400B2
:1052DC000121FCF73CFF94F9E400FCF7FFFF0120EF
:1052EC0038BD00BFE8020020F12800084FF47A72A4
:1052FC0070B5114E0546D6F81831B3FBF2F3013BED
:10530C00B3F1807F01D3012070BDF0210B4A002442
:10531C0053600B4B0F2883F823104FF00703946056
:10532C001360F0D801464FF0FF30FCF710FFC6F8C1
:10533C001C512046E8E700BF0000002010E000E010
:10534C0000ED00E001224FF48033F0B591B0CDE9CF
:10535C0006230A9202220021CDE90D234FF4E0131B
:10536C0006A808910F93FEF73FF900B1FEE74E4AED
:10537C00136813F0060F10D04C4B5A6842F4E062DD
:10538C005A605A6842F460525A605A6822F0F0022D
:10539C005A601A6896010CD4FEE7136823F00703D1
:1053AC0043F002031360136803F00703022BF3D1DD
:1053BC00E2E741F288345A6822F0030242F002021A
:1053CC005A603B4A5069596801F00C0108295ED1BA
:1053DC0035490A6802F00702022A0AD90A6822F043
:1053EC00070242F002020A600A6802F00702022A6F
:1053FC00D2D102AD2C465A6822F4E06242F48062AB
:10540C005A605A6822F460525A602A4A02F1100714
:10541C002E4610685168083203C6BA423546F7D199
:10542C0040F20122ADF80420596801F00C02082A60
:10543C0035D110A8C1F383420244CD0312F8380CC5
:10544C002AD559681C4AC1F34041424310A8014473
:10545C0011F83C1CB2FBF1F25968184BC1F3031163
:10546C000B4493F8C8301648DA40C0F81821D0F82D
:10547C001C01FFF73BFF12234FF400410293002362
:10548C002046CDE90413FEF727F850B1FEE7516929
:10549C00091AA14297D97FE70A4A4243DCE7064A38
:1054AC00DAE711B0F0BD00BF00200240001002404E
:1054BC00E8020020B0DD000800127A00F8DC0008D9
:1054CC000000002000093D00C1B2014803F07EBD80
:1054DC006C0A00202DE9F0414D4E044633685F689C
:1054EC0017F0040703D001273846BDE8F081FCF71C
:1054FC00A9FE4FF46163B0FBF3F2054603FB120304
:10550C003C20B3FBF0F100FB1133A370414B6170F5
:10551C009D426AD91821B2FBF1F301FB13222270D0
:10552C00FCF7A6FE411C044604D085422CBF4FF06C
:10553C00FF34441B384BB5FBF3F803FB18584046BB
:10554C00FCF7A0FE07460028CDD1621C22D008EB48
:10555C000400FCF761FE0028C5D12F4B0024B5FBDD
:10556C00F3F54FF0640C4FF4C87E40F2D528F07B75
:10557C00717BB27B4B1E092B0ED90C2937D021F035
:10558C000203042B01D0092B0CD11D2A0ED9013199
:10559C00012231E02046DCE728FA03F3DB07EED5E5
:1055AC001E2AF3E7022927D11B2A01D8013223E056
:1055BC001C2A13D182B2930712D1B2FBFCF30CFB61
:1055CC0013239BB27BB9B2FBFEF30EFB13239BB2EE
:1055DC00002B16BF01221D2203210DE01D2A0BD129
:1055EC000122032108E01D2206E022707CE71E2A1E
:1055FC00DCD90122114601300134A542BAD8C9B216
:10560C00D2B2F0737173B273FDF735FF30736BE781
:10561C00E80200207F510100805101000A4B13B5B4
:10562C0093F8283804466BB101A8FFF753FF9DF897
:10563C00043063709DF80530A3709DF80630E3705C
:10564C000023237002B010BDE80200202DE9F341C5
:10565C00447B0646172C3BD8037B013B1E2B37D8CB
:10566C00877B3B2F34D890F80F80B8F13B0F2FD8A5
:10567C000023244DADF804308DF806302B7C012B23
:10568C0026D001232B74022301A86B74FFF722FF91
:10569C00F0B93C224FF4616102FB07F001FB0400FE
:1056AC009DF805409DF80430624301FB03239DF8EF
:1056BC00062040441344834284BF00F5A83000F513
:1056CC00C070FCF7A9FD40B104236B7400232B744C
:1056DC000123B37502B0BDE8F0816FF002022B68B4
:1056EC005A601A6842F002021A60074B1A6842F4B8
:1056FC0000321A609A6842F400329A6001232874CE
:10570C006B74E5E7E8020020000401402DE9F74343
:10571C0000240F4D064695F82838A046A14627468A
:10572C009BB101A8ADF804408DF80640FFF7D2FEFE
:10573C0028B92F7B95F80F906C7B95F80E8086F826
:10574C000890747286F80A80F77203B0BDE8F08393
:10575C00E802002070B5924C8AB094F828380546BF
:10576C000026002B40F0FF80C17D022903D00329C5
:10577C000CBF03213146012394F8292884F82A38D8
:10578C004AB1884A1360136002F5501202F5846224
:10579C00136000231360022920D1282200216846BF
:1057AC0005F084FDFDF71CFB7F4B1B6A9B075FBF5D
:1057BC000423009301230393009B23B16846FDF758
:1057CC0013FF00B1FEE701264FF480736846CDE964
:1057DC000063FDF781FE002845D0FEE7032920D1A8
:1057EC0000212822684605F061FDFDF7F9FA6E4BA1
:1057FC001B6898035EBF4FF480330121CDE9001381
:10580C00009B23B16846FDF7EFFE00B1FEE70122D5
:10581C004FF440736846CDE90023FDF75DFE10B3ED
:10582C00FEE7F9B92822684605F040FDFDF7D8FAE5
:10583C005D4B5B6A9B075FBF0823009301230693B4
:10584C00009B23B16846FDF7CFFE00B1FEE74FF099
:10585C00010C4FF400736846CDE900C3FDF73CFE24
:10586C0008B1FEE7FEE70122504B514E1A604FF093
:10587C00FF33C4E900630023A360637C03F0FF02E1
:10588C0003B9227402236374FCF712FD00B30423E2
:10589C00022129206374FCF75AFC4FF40072454B2B
:1058AC005A60FDF79DFA0123284684F82838FFF743
:1058BC00B5FE2846FFF72AFFAB7A6A782B736B6824
:1058CC006A732B616A882B78EA812B750AB070BDDC
:1058DC00FCF78CFC0028DAD12168A6684B68364AA4
:1058EC0023F007034B601EB1106B20F00100106316
:1058FC00D36A23F460733343D3626368581C0AD1B0
:10590C0040F20230284A136A1840B0F5817F16D154
:10591C004FF40043013B8A6822F00F0242EA134223
:10592C008A60CA689BB2120C12041343CB60FCF75A
:10593C0048FC0028ABD101236373E381A8E703F48F
:10594C004073B3F5007F05D1536A9A079FD549F68A
:10595C004043DFE7B3F5407F99D113689B0396D59D
:10596C004FF22443D6E7FFF759FE2846FFF7CEFE49
:10597C00FCF77EFC4FF46163B0FBF3F203FB120304
:10598C003C20B3FBF0F100FB1133A9731821EB732E
:10599C00B2FBF1F301FB13232E756B736E7595E758
:1059AC00E802002020000E42001002403C0442425B
:1059BC000028004000E100E0006C00402DE9F04FB1
:1059CC00054697B04E4F18B997F83428002A76D070
:1059DC00D7F8382897F8281812F0010202BF87F878
:1059EC0053280122C7F8382897F85328032A14BFE4
:1059FC0016460026002940F08D80424887F85368EF
:105A0C00FFF7A8FE002D5AD0B5F57A7F28BF4FF4CA
:105A1C007A703B4C28BFB5FBF0F504F63C0038BF60
:105A2C000125FFF773FE04F63C00FFF7F7FD002697
:105A3C004FF0FF33CDE9136394F844380CA864336A
:105A4C00119394F845381296013B109394F846380C
:105A5C000F9394F83D380E9394F83E380D9394F8C8
:105A6C003F380C9305F004FD94F828383BB3264BD3
:105A7C0005440CA89D422CBF0C950C930D9605F07B
:105A8C0023FB94F82838D3B1037B5A1E1E2A01D865
:105A9C0084F84838037A172B01D884F849380379ED
:105AAC003B2B01D884F84A3803783B2B01D884F877
:105ABC004B380F21134884F85118FFF7C7FD72B605
:105ACC00124B1A6822F002021A601A6842F00102A4
:105ADC001A600F4B1A6942F004021A6130BF1A693E
:105AEC0022F004021A61FFF72DFC62B6044B5969CF
:105AFC005A69521A0A2AFBD917B0BDE8F08F00BFB9
:105B0C00E8020020240B002080436D380070004018
:105B1C0000ED00E096423FF475AF97F85038BF485F
:105B2C00099397F8523897F851480A9397F84938DF
:105B3C0097F848B8009397F84A38019397F84B3880
:105B4C000293FFF7E3FD97F84738B448039397F8AF
:105B5C004638049397F84538059397F844380693DC
:105B6C00FFF75CFD0222D7F840387A74079397F858
:105B7C003C3897F83D8897F83E9897F83FA80893DB
:105B8C00FCF734FB0246002800F0F58004227A74FE
:105B9C0000223A740022A24BC3F85428C3F85828A8
:105BAC0083F8282883F85228089A03F63C00003220
:105BBC0018BF012283F8536883F82928FFF7CAFD20
:105BCC00974B93F828281E46002A3FF41BAF03F688
:105BDC003C00FFF723FD079BB3F57A7F38BFC6F86F
:105BEC004038BAF13B0F98BF86F83FA8DFF830A2D7
:105BFC00B9F13B0F089B98BF8AF83E98B8F1170F84
:105C0C0098BF8AF83D888AF83C389AF83D38172BAB
:105C1C0029D89AF83E183B2925D89AF83F283B2AD0
:105C2C0021D89AF81000012819D03C2601204E43A7
:105C3C004FF461618AF81000022001FB03639E1887
:105C4C008AF811003046FCF71DFB0746002800F0CF
:105C5C00AF8004238AF8113000238AF8103043F205
:105C6C00F222704B1A606E4F07F63C00FFF74EFDA8
:105C7C00039B013B062B02D8039B87F84738049BF8
:105C8C00013B1E2B9CBF049B87F84638059B013BB0
:105C9C000B2B9CBF059B87F84538069B632B98BF45
:105CAC0087F8443897F84408632833D897F8451890
:105CBC004B1E0B2B2ED897F84628531E1E2B29D87B
:105CCC0097F84738062B25D83B7C012B1ED0012397
:105CDC003B74022379737B74BA73F873FDF7CBFBB7
:105CEC003873FCF7AFFA504B984240F28F80A3F612
:105CFC000F63B0FBF3F603FB16063046FCF7C2FA53
:105D0C00002874D004237B7400233B7443F2F222EA
:105D1C00444B1A60009B172B02D8009B87F849381C
:105D2C00099B87F85038019B3B2B98BF87F84A3862
:105D3C00029B3B2B01D887F84B380BF1FF331E2B02
:105D4C0001D887F848B80A9B002B3FF45BAE072CB0
:105D5C0087F851480AD05BD8012C07D04FFA84F948
:105D6C00B9F1000F62D0032C7FF44CAE21462B48C6
:105D7C00FFF76CFC46E639680B92C86188614FF4FA
:105D8C000040C8608A600A604A60FCF71AFA18B1D1
:105D9C0004210B9A7974FCE60B90FCF789FA3868AD
:105DAC000B99426822F00802426079743974F1E66A
:105DBC00DAF80020536823F005035360FCF758FA17
:105DCC00421C0ED086420CD900F5A83000F5C070EC
:105DDC00FCF722FA28B104238AF810708AF81130E3
:105DEC003DE701220E4B5A7400221A7437E7FCF778
:105DFC003FFA431C0AD0864208D900F5A83000F5BA
:105E0C00C070FCF709FA00287FF47CAF01237AE715
:105E1C001F2CABD03F2CA9D00F2CA5E7240B0020B6
:105E2C00E8020020046C00408F5F01006FF0020854
:105E3C003B68C3F804803A7C012A3FF4E3AD0222AC
:105E4C0001247A743C741A6802EA08021A60FCF79E
:105E5C00CDF9064620B1042387F810907B74D1E568
:105E6C004FF6FF723B68C3F804801A625A6202F163
:105E7C00804202F20142136823F400331360FCF7F2
:105E8C00A0F918B104233E747B74BBE57C743874A0
:105E9C00B8E570B5D0F8C052044695F8A83405F1B1
:105EAC007001012B08D00123286885F8A834FDF770
:105EBC0064F9002385F8A8340026D4F8C05226646F
:105ECC0095F8A83405F52371012B07D00123286818
:105EDC0085F8A834FDF751F985F8A8640026D4F8A4
:105EEC00C052C4F86C6195F8A83405F19401012BEB
:105EFC0007D00123286885F8A834FDF73EF985F80A
:105F0C00A8640025D4F8B83265654BB1D4F8BC321E
:105F1C005B689847D4F8B80205F0C0F9C4F8B852D9
:105F2C00002070BD70B5044608460D4603F0B8FA63
:105F3C002368024629462046BDE870405B68184736
:105F4C000023012A98BF0A2230B58BB08DF824307B
:105F5C0009ACB1FBF2F505FB1213DBB2092B94BFB4
:105F6C0030333733DBB28A4204F8013D04D9214681
:105F7C00FFF7D8FF0BB030BD2946EAE72DE9F8430F
:105F8C0006460C460025071D00F1070917F8011BF2
:105F9C000A222046FFF7D4FF236880461B682E2177
:105FAC00204698474F4540440544EFD10A22F179E9
:105FBC002046FFF7C5FF2844BDE8F88370B50D0EE9
:105FCC00445991FAA1F3B3FA83F304269B0006FA21
:105FDC0003F324EA030491FAA1F1B1FA81F18900E7
:105FEC008A402243425170BD70B50D0E445991FA4E
:105FFC00A1F3B3FA83F30F269B0006FA03F324EA0A
:10600C00030491FAA1F1B1FA81F189008A4022438B
:10601C00425170BD38B50B0E05460C46C05891FA6E
:10602C00A1F1B1FA81F399000F238B40034094FA4C
:10603C00A4F1B1FA81F1012A4FEA810123FA01F3AB
:10604C0009D0022A1CD0082B19D121462846BDE8BC
:10605C0038400422C8E7042B04D1082221462846E4
:10606C00FFF7C2FFEA68240A22EA040294FAA4F4B5
:10607C000123B4FA84F403FA04F41443EC6038BD3D
:10608C00042B04D1082221462846FFF7ADFFEB680C
:10609C00240A23EA040394FAA4F4EB60EFE72DE955
:1060AC00F74380461FFA88F6B8F1FF3F0F4601F020
:1060BC000709C0F3031006F00F0200D1FEE7AE4B48
:1060CC0003EB8203DC6DFCF7C1FEB9F1010F054651
:1060DC0045D1200E295894FAA4F2B2FA82F2032385
:1060EC00920003FA02F221EA020294FAA4FCBCFA2E
:1060FC008CFC4FEA8C0C03FA0CF313432B5001224B
:10610C002146284609F1FF39FFF76EFFB9F1010F5F
:10611C0006D817F0080218BF04222146FFF74EFFDD
:10612C00C7F3011221462846FFF774FF934B9A6977
:10613C0042F001029A619B6903F001030193019BF8
:10614C00A6F10D03012B00F21D818D4A536823F03B
:10615C00E06343F08063536003B0BDE8F083B9F1B2
:10616C00030F0BD801A353F829F000BF7B63000881
:10617C000B6100088B6100087F630008FEE77F4B12
:10618C009A6942F001029A619B6903F00103009342
:10619C00009BC1F30623013B232B2CD8DFE813F023
:1061AC0024002D0034003B00400047004C005300FD
:1061BC0058005F0068006D0074007D00820089004B
:1061CC0092009B00A000A700B000B500BC002B0003
:1061DC002B002B00C100C8002B002B002B002B0028
:1061EC00CD00D200D900E000654A536843F0E0636B
:1061FC0043F001035360092282E7614A536823F09C
:10620C00010343F0E063F5E75D4A536843F0E06354
:10621C0043F00203EEE75A4A536823F00203F0E717
:10622C00574A536843F0E06343F00403E2E7544AEF
:10623C00536823F00403E4E7514A536843F0E063E6
:10624C0043F00803D6E74E4A536823F00803D8E717
:10625C004B4A536843F0E06343F03003CAE7484AC3
:10626C00536823F0300343F0E06343F01003C1E7BD
:10627C00434A536823F03003C3E7414A536843F061
:10628C00E06343F0C003B5E73D4A536823F0C00315
:10629C0043F0E06343F04003ACE7394A536823F022
:1062AC00C003AEE7364A536843F0E06343F44073EF
:1062BC00A0E7334A536823F4407343F0E06343F49C
:1062CC00007397E72E4A536823F4407343F0E0635E
:1062DC0043F480738EE72A4A536823F4407390E7A3
:1062EC00274A536843F0E06343F4406382E7244A4F
:1062FC00536823F4406343F0E06343F4006379E7AD
:10630C001F4A536823F440637BE71D4A536843F0EC
:10631C00E06343F480536DE7194A536823F48053C8
:10632C006FE7174A536843F0E06343F4004361E7B7
:10633C00134A536823F4004363E7114A536823F06C
:10634C00E06357E70E4A536823F0E06343F0807331
:10635C0050E70B4A536823F0E06343F0007349E7BE
:10636C00074A536823F0E06343F0806342E7082256
:10637C00C6E60022C4E600BFF8DC000800100240AC
:10638C0000000140B8F10F0F03D0133E012E3FF671
:10639C00E3AE034A536823F0E06343F00073DAE69C
:1063AC0000000140F7B5894C94F85C38002B40F0A4
:1063BC000081D4F874270AB1C4F874370025012180
:1063CC00834B0C2084F85C17C4F8703784F8C054E5
:1063DC00FFF765FE4FF480527E4B0A205A61FCF7A2
:1063EC0005FB29460C20FFF75AFE0423C4F8643839
:1063FC00794BC4F86C58C4F860380223C4F87C5844
:10640C00C4F88058C4F87858C4F87458734DC4F85C
:10641C007038C4F8683894F8093DC4F83C5D05F54B
:10642C006875C4F8805703F0FF02002B34D16C4E12
:10643C0084F8082DB6F90000431C40F0BC80694B71
:10644C000121DA69142042F40002DA61DB6903F4F9
:10645C0000030193019BFBF77AFE4FF48013624912
:10646C000B60D4F87838012B16D14FF480225F4B97
:10647C002A205A61DA6822F48022DA609A6842F49F
:10648C0080229A601A6842F480221A604FF480636A
:10649C004B600021FBF75BFE03230020D4F860184F
:1064AC0084F8093DB1F84030012723F474535B04A0
:1064BC005B0CA1F840304E4B06461A4682F8280079
:1064CC00908601300F2882F8297082F82B60C2E97F
:1064DC000E661664A2F84860A2F84A6002F1240223
:1064EC00ECD10020024683F86802A3F87402013054
:1064FC000F2883F8692283F86B22C3E99E22C3F824
:10650C008022A3F88822A3F88A2203F12403EAD17B
:10651C000120A1F84000A1F84020A1F84420A1F8E6
:10652C005020B1F84030002743F43F43A1F84030ED
:10653C004FF000034FF0240C2E4984F8843884F873
:10654C00090D0B684E689AB212F0800F15BF02F05D
:10655C007F039BB20CFB03530CFB0353B1F808E015
:10656C0014BF283303F51A73B2B2BEF1000F27D152
:10657C0083F80AE09A800137052F01F10C01E0D174
:10658C001D4BC4F874373833C4F87C37D4F88037D3
:10659C0093F8A824012A09D01968B1F8402042F4D4
:1065AC003F42A1F84020002283F8A824012384F85C
:1065BC005C3803B0F0BDB168FFF771FD0C3639E7FC
:1065CC00360C9872DA801E81D5E700BFE8020020F5
:1065DC002001002000080140005C0040A8070020BA
:1065EC00D0DD00080010024000E100E00004014092
:1065FC00480B0020F4DD00083C010020431C05D1B1
:10660C007047834201D1896849E50C31B1F90030FA
:10661C005A1CF6D1FEE72DE9FF47B0F94C90044621
:10662C000D4648467A4916469846FCF702FC7949CD
:10663C008246B4F94E00FCF7FCFB0C9F0146002887
:10664C0000F09A80BAF1000F00F096805046FCF7EB
:10665C00E7FB2060002800F08F806F4B984240F0E1
:10666C008E8003F55843DA6842F48042DA60DA68C7
:10667C0022F48042DA609A6942F480429A619B6902
:10668C0003F480430193019B2523A4F85030604907
:10669C004846FFF7B3FFB4F94E005E49FFF7AEFF73
:1066AC0094F851205D4B206803EB8203221DC3F844
:1066BC00A82400230C222362C4E9062394F83D305D
:1066CC00C4E90105C4E90367C4F8148003F0FF02B0
:1066DC000BB984F83C20242384F83D30C36823F4A0
:1066EC000053C360036923F440531F430761C3681D
:1066FC00D4E9052123F4B0530A4323F00C033243AD
:10670C001A43C260436923F440734361424B98427D
:10671C0068D103F558435A68414BC2F3C222134463
:10672C00404A93F8B030D2F81811AD0021FA03F3B7
:10673C00192159436422B1FBF5F1B1FBF2F502FBCF
:10674C0015131B013233B3FBF2F303EB0513836018
:10675C0063681A6922F490421A615A6922F02A027B
:10676C005A61DA6842F40052DA6000232364202371
:10677C0084F83D3084F83E3004B0BDE8F0872A4BF5
:10678C00984215D103F5E6331A6942F400321A61C6
:10679C001A6922F400321A61DA6942F40032DA61C1
:1067AC00DB6903F400330293029B4FF493736CE7A1
:1067BC001E4B98427FF46BAF03F5E4331A6942F435
:1067CC0080221A611A6922F480221A61DA6942F471
:1067DC008022DA61DB6903F480230393039B40F28C
:1067EC00272352E7FCF7ECFE19235843A3686421D6
:1067FC009B00B0FBF3F0B0FBF1F501FB15031B01A3
:10680C003233B3FBF1F3626803EB051393609FE73C
:10681C0030DE00086CDE000800380140E802002081
:10682C00F8DC000800000020004400400048004054
:10683C00062313B51D4C4FF4E13184F8383E002388
:10684C0004F6D4501A460093C4F83C1EFFF7E3FE3E
:10685C0094F8253E04EB8303D3F8A82492F839303E
:10686C0092F83A20134303F02203222B1CD0104B36
:10687C0094F9240EC4F8183EFEF7DEFC94F8253E7D
:10688C0004F6266104EB8303D3F8A804FBF738FC69
:10689C0094F9240E0121FBF75AFC94F9240E02B052
:1068AC00BDE81040FBF71ABD02B010BDE802002095
:1068BC00A12900082DE9F74F04460D46B0F95E00FA
:1068CC008C4917469846FCF7B4FA8B498246B4F9C2
:1068DC005C00FCF7AEFA89498346B4F96000FCF71A
:1068EC00A8FAB4F96260814685493046FCF7A1FAF2
:1068FC000246BAF1000F00F0C480BBF1000F00F0AB
:10690C00C080B9F1000F00F0BC8059465046FCF72E
:10691C0087FA034611464846FCF782FA01461846A8
:10692C00FCF77EFAA065002800F0AB80013614BF9E
:10693C004FF480234FF40073A3614FF48273714AB8
:10694C006360714B90422060D3F818316F4E00F0A9
:10695C009B8002F57842904208D102F56042526861
:10696C00C2F3C222324492F8B020D340B5EB530F9D
:10697C00C0F08E800023002517F0FD0FE36114BFDB
:10698C0001232B46022F636134BF2B460223236164
:10699C000723A845E3620CBF80232B465549C4E965
:1069AC000835B4F95E00A560A562E560FFF726FE28
:1069BC005149B4F95C00FFF721FEB4F960004F496E
:1069CC00FFF71CFE2369AB42B4F9603008BF02220A
:1069DC00C3F3031118BF012203F00F03042998BF5E
:1069EC0006EB810106EB830694BF886C2846F16D9B
:1069FC00FFF710FB4249B4F96200FFF7FFFD226874
:106A0C00434B9A4267D103F56043996941F4805135
:106A1C0099619B6903F480530093009B0023A3624C
:106A2C0094F8513003F0FF010BB984F85010022395
:106A3C0084F851301368A16923F040031360D4E942
:106A4C0001300343E0680343206903436069034357
:106A5C00E0690343206A034301F40070090C03430B
:106A6C0001F0040113605160D36923F40063D36116
:106A7C0000236365012384F85130136843F040030D
:106A8C00136003B0BDE8F08FFCF79AFD03466DE789
:106A9C00B5EB930F01D308236DE7B5EBD30F01D3FF
:106AAC00102368E7B5EB131F01D3182363E7B5EB8D
:106ABC00531F01D320235EE7B5EB931F01D328238B
:106ACC0059E7B5EBD31F01D3302354E7B5EB132FA4
:106ADC00EBD338234FE70B4B9A429FD103F5EC33A2
:106AEC00D96941F48041D961DB6903F48043019396
:106AFC00019B93E7A8DE0008D8DE000808DF000839
:106B0C0038DF00080038004000000020F8DC0008E6
:106B1C000030014030B585B0044604A800E90E00F1
:106B2C0000230C2202FB03F1615ED8B223290CD0A6
:106B3C000133042BF6D100230C2101FB03F2A55EDB
:106B4C00D8B2013517D12323A3520C2303FB0040E9
:106B5C009DF80C30BDF80C205D1E02996B426B4108
:106B6C00028183724160120A04F13400FFF7A2FE25
:106B7C002323238602E00133042BDED105B030BD84
:106B8C002DE9F74F80468B4617464FF00009284CED
:106B9C0096B2636904F1180AC360B4F8D830584649
:106BAC009BB2ADF80430B4F8DC309BB2ADF80630D3
:106BBC00B4F8DA30BDF806209A4298BFA4F8DA90FF
:106BCC00B4F8DA30BDF804209A422CBFBDF804505A
:106BDC00BDF80650B4F8DA30B4F8DA10ED1AADB2EC
:106BEC00B54228BF354651442A4605F0BFF9B4F8E2
:106BFC00DA30761B2B449BB2A4F8DA30B4F8DA30D6
:106C0C00BDF80620B6B29A4298BFA4F8DA90AB440D
:106C1C00FCF7C1FF46B1D8F80C2063699B1AD8F871
:106C2C0008209342B9D3BF1B384603B0BDE8F08FA0
:106C3C00E80200202DE9F84FDFF8BC800E4617461D
:106C4C009246454608F54879D8F8B82498F85C1768
:106C5C00BAF1000F4CD0002A48D06B690329A3EB82
:106C6C00020345D1022B43D8D5F8B434002B3FD0C6
:106C7C00B5F8A243B5F8A033E41A7F34634203F0AD
:106C8C007F0304F07F0458BF5C42A24521D3002C43
:106C9C00DED0B5F8A0B3B5F8A003CBF1800BA345BB
:106CAC0019D922463146484405F060F9B5F8A033AD
:106CBC00AAEB040A234403F07F03A5F8A033D5F80C
:106CCC0078372644D3F81432002BBDD1FDF75AF98E
:106CDC00BAE75446DDE75A463146484405F046F9D2
:106CEC00A4EB0B0206EB0B014846DDE70329BBD0F6
:106CFC00A7EB0A00BDE8F88FE80200202DE9F0416F
:106D0C000446237CD0F8C002002B3BD102234FF465
:106D1C00007282210125FDF787F902234FF40072DE
:106D2C0025642946D4F8C002FDF77EF9C4F86C51ED
:106D3C000125032308228321D4F8C002FDF774F93E
:106D4C0065654FF4077004F0A1FA0646C4F8B80262
:106D5C0058B30027D4F8BC321B68984794F81080BD
:106D6C00C6F81472C6F81872B8F1000F14D14FF4AB
:106D7C000073D6F8042229462046FCF730FE404624
:106D8C00BDE8F0810125022340228221FDF74CF958
:106D9C00256402234022C4E74023D6F80422294666
:106DAC002046FCF71CFE3846EAE72846E8E70D4B80
:106DBC005A69024215D058610023012803F10102DF
:106DCC0002D040081346F8E71421DBB24B43064AC5
:106DDC00D01800F5F270816819B11A44D2F8F0316C
:106DEC001847704700040140E8020020012307B552
:106DFC001A468DF8041001A902F08EF89DF80400D3
:106E0C0003B05DF804FB2DE9F04F90F8A26087B059
:106E1C00012E044640F02F81984D95F849CF95F8F6
:106E2C00487FD5F81490BCF1000F40F0A480D5F841
:106E3C00149090F85530202B18D00220904B184409
:106E4C0090F80003002800F0148101280CBF0124E5
:106E5C00042402F05BF9002385F8503F85F8493F84
:106E6C0085F8513F204607B0BDE8F08F00F11808B7
:106E7C00CDF800901923324682494046FDF79AFA24
:106E8C000028DAD194F85430012BD6D0A36984F8B9
:106E9C0054601A687C49D60758BF1A6840465CBFD4
:106EAC0042F001021A601A6822F400621A6024226D
:106EBC0084F855200022A2656164196841F4807140
:106ECC001960CDF8009064234FF00111FDF772FAB0
:106EDC0008B10120B2E7A026A36907F0FE071F61E5
:106EEC00686959695A69C1F34001C2F3802294F868
:106EFC005570A02F01D00A431FD0202684F855606E
:106F0C005A6912F0020F1A6842F400721A6021D00A
:106F1C00002204925A695B4904929B6901220493F2
:106F2C00049B009019234046FDF744FA0028D0D169
:106F3C0084F8556084F8540080E76A69121A642A50
:106F4C0088BF84F8556059695A69C1F34001C2F38E
:106F5C008022CCE76FF480624A495A610090192371
:106F6C0001224046FDF726FA0028B2D184F855607C
:106F7C0084F85400ADE746F2A812D5F84C3F002136
:106F8C000293424B0220D3F818314FF0210EB3FB81
:106F9C00F2F319224FF0100853434FF0200A0A461F
:106FAC000393059294F85530202B13D1039B059332
:106FBC00059B013B0593059B9BB9A36484F855A0E5
:106FCC0084F85630D4F858B084F854304BF0200B79
:106FDC00C4F858B0A36D5B077FF534AF6329E0D9D3
:106FEC0030E7A369D3F818B01BF0020FE0D194F886
:106FFC0054B0BBF1010FEDD084F854601868C00791
:10700C005EBF186840F001001860186820F400603A
:10701C001860029884F855E084F85680A265A4F8AC
:10702C0042C0E063B4F84200A4F840001648606423
:10703C00E765186840F48070186084F8542058682C
:10704C0040F4E0605860002094F85530202BC1D0FB
:10705C000028BFD16969A36DA1EB0901642906D889
:10706C0013F0200F03D1002B18BF0220ECE70120F6
:10707C00EAE70446EDE60424F4E600BFE80200204B
:10708C00F8DC0008020010000000FFFF00000020E8
:10709C000122064B904083F8512F002283F8480FB1
:1070AC0083F8502F83F8492F704700BFE802002067
:1070BC00002330B5B0F9302085B0232A04468DF872
:1070CC0007108DF80B3000F0C6800C2202FB03F188
:1070DC00655E232D00F0B6800133042BF6D1002021
:1070EC0034E09868800710D5B4F86A0080B260B1BB
:1070FC005DB1606E30F8025BDD6000256066B4F84F
:10710C006A00013880B2A4F86A009868C0070FD5ED
:10711C00B4F8720080B258B1DD68E06E20F8025B02
:10712C000125E066B4F87200013880B2A4F8720050
:10713C005069401AB0F57A7FC0F0DD80012384F8E5
:10714C008530002384F884309DF80B0005B030BDE9
:10715C009DF8070018730120636E01336366B4F861
:10716C006A30013B9BB2A4F86A30B4F86A309BB227
:10717C002BB9B4F872309BB2002B00F0C880656B51
:10718C00AB689B0711D5B4F86A309BB26BB160B198
:10719C000020636E1B782B73636E01336366B4F847
:1071AC006A30013B9BB2A4F86A30656BAB68DB07B5
:1071BC0010D5B4F872309BB263B1E868E36E187006
:1071CC000120E36E0133E366B4F87230013B9BB2ED
:1071DC00A4F8723053695B1AB3F57A7FAED2C4E768
:1071EC005069401AB0F57A7FC0F092805A6822F04C
:1071FC00E0025A60A26BB2F5827F0AD1E26BB2F563
:10720C00004F02D0B2F5806F03D11A6822F0400211
:10721C001A60E26DB2F5005F07D11A6822F40052D1
:10722C001A601A6842F400521A60012384F88530FF
:10723C00D4F8883043F02003C4F888302023C4F8F5
:10724C0088307BE721448B7A4A7A04F13400496810
:10725C00FFF730FB258694F88430012B3FF474AF94
:10726C000123334A84F88430516994F88530DBB2B9
:10727C00012B0BD0A06BB0F5827F7FF45FAFE06B7E
:10728C0000287FF45BAF042B7FF458AF94F8853063
:10729C000020042B1CBF052384F885300DF10B0353
:1072AC00E3660123C4F88800A4F87030A4F87230A7
:1072BC00A4F86830A4F86A30636BC4E91D00186840
:1072CC000DF10705656645065EBF186840F0400085
:1072DC001860206CB0F5006F7FF43AAF0125BDF853
:1072EC000700D8600DF109006066B4F86A00013837
:1072FC0080B2A4F86A00B4F86A0080B200287FF467
:10730C00F0AEB4F8720080B200287FF4EAAE636B82
:10731C00986800063FF564AFE26B002A7FF40EAF6D
:10732C000392DA6803929B680393039B06E700BF02
:10733C00E8020020F7B50025A34E044686F8525FFC
:10734C0086F8535F01F0F0FE86F8505F86F8495FCF
:10735C0001F0DCFE6623237401239C49A4F8A230BF
:10736C00B4F96C0086F8515FFBF763FDB4F96E70ED
:10737C00974905463846FBF75CFD0146002D00F0A9
:10738C00D880002800F0D5802846FBF749FD6061C5
:10739C00002800F0CE808F4B04F11805984240F085
:1073AC00CA8003F5DE33DA6942F40012DA61DA6975
:1073BC0002F400120192019A1A6942F400121A6145
:1073CC001A6922F400121A6142F21F03C6F8545FC4
:1073DC00A4F870307E493846FFF710F97B49B4F9B0
:1073EC006C00FFF70BF963697B4AA3610023C4E9C6
:1073FC00072366226262FF2222634FF48042C4E9B3
:10740C000A2394F8A32084F855309A420CBF1A46EC
:10741C0040220221C4E90D2394F97000FAF797FE7B
:10742C0094F97000FAF75AFF022194F97100FAF7F7
:10743C008EFE94F97100FAF751FF94F8553003F071
:10744C00FF020BB984F854202423A26984F8553028
:10745C00136823F001031360FCF7B2F85E4AE3698A
:10746C00934294BF5D4A5E4A90428CBF0022012237
:10747C00002A40F09A805B4FA269B0FBF7F7516885
:10748C00013821F03F01394351605349166A8B4250
:10749C0081BF4FF4967179434FF47A77B1FBF7F1D2
:1074AC0026F03F0694BF791C013131431162D1693A
:1074BC00494E21F44F41B34221F0FF0159D85B00F2
:1074CC00B0FBF3F0431C40F6FC7003426BD0C3F3EB
:1074DC000B030B43D3611168D4E90D3021F0C001CB
:1074EC0003430B4313609168D4E9090321F403416E
:1074FC00034321F0FF010B439360D168D4E90B30B7
:10750C0021F0FF0103430B43D360136843F00103E5
:10751C00136000232022A36584F85520A36484F80B
:10752C0056306367022384F8A13094F8A230002B04
:10753C003CD003B0F0BD2C4B98427FF44BAF03F51D
:10754C00DC33DA6942F48002DA61DA6902F480022F
:10755C000092009A1A6942F480021A611A6922F4A4
:10756C0080021A6142F22123C6F8585FA4F87030E9
:10757C0030E7266A56B903EB4303B0FBF3F0431C28
:10758C00C3F30B0353B143F40043A2E7192673432F
:10759C00B0FBF3F0431CC3F30B030BB9012398E7C7
:1075AC0043F4404395E7042393E7FEE70F4B28464B
:1075BC00E367FCF729FF28460D4BA36703B0BDE832
:1075CC00F040FCF721BF00BFE8020020FCDF000800
:1075DC002CE0000800540040A08601007F841E00AF
:1075EC00FF083D0040420F00005800404D8F00083E
:1075FC006190000807B500238DF804108DF8052064
:10760C0001A9022201F088FC03B05DF804FB38B537
:10761C00054C01462046FEF785FC044905462046EC
:10762C00FEF780FC284438BD281100202AE200080F
:10763C0037B50125184C2B460022532104F5656003
:10764C00009501F047FD02230022532104F56560EB
:10765C00009501F03FFD04230622009354210023E2
:10766C0004F5656001F036FD04F5656000950323B3
:10767C002A46532101F02EFDD4F8580E002805DBC4
:10768C00032103B0BDE83040FBF734BC034803B022
:10769C00BDE83040BBE700BFE80200202DE2000847
:1076AC0038B50C220446002302FB03F0205ED9B24D
:1076BC0023280CD00133042BF6D100230C2000FB23
:1076CC0003F2A55ED9B2013511D12323A3520023B5
:1076DC0084F885300C2303FB014104F134008B7AD0
:1076EC004A7A4968FFF7E6F82323238602E0013340
:1076FC00042BE4D138BD38B506244FF48065A8B20C
:10770C00FFF755FB013C4FEA4505F8D138BD38B5BC
:10771C0005242025A8B2FFF74AFB013C4FEA45059A
:10772C00F8D138BD1020FFF742BB0820FFF73FBB54
:10773C000420FFF73CBB0220FFF739BB0120FFF709
:10774C0036BB03F0ABBD03F0A9BDFEE7034BD3F88A
:10775C00680F10B10430FBF718BE7047E802002028
:10776C00034BD3F8640F10B10430FBF70EBE704717
:10777C00E8020020034BD3F8600F10B10430FBF784
:10778C0004BE7047E8020020034BD3F85C0F10B125
:10779C000430FBF7FABD7047E8020020FFF7F4BF96
:1077AC00574B2DE9F74F33F9105088466C1C00F0FD
:1077BC00A480C5F30317534EBF00F219D2F86C9F87
:1077CC0005F00F0A29FA0AF2D00711D503F55973FF
:1077DC0002E0954277D00C33B3F90020511CF8D15C
:1077EC00012303FA0AFA3E4429EA0A03C6F86C3F5D
:1077FC0008F1FF38B8F1030F56D8DFE808F0625CE7
:10780C005E60009BB030C2F85C0FC1F8B43001F17F
:10781C00B40081F8D040C1E93544C1E93744C1E92D
:10782C003944C1F8EC4081F8F04081F8F140C1F8DE
:10783C00B010FBF791FA4FF6FF730A4608464FF06B
:10784C00010E01F1700C13609460D4609461C2E974
:10785C0004441C326245C0E91C3EC0E91E4400F1E0
:10786C001000F0D1C1E93D44C1E93F44C1F80441E5
:10787C00C1F8B01006EB8B0BDBF85C3F19680029E4
:10788C00AED0D1F8B400FAF7F7FF002306EB800076
:10789C00C0F85C3FC1F8B03001F1B400FBF75CFA02
:1078AC00084603F0FBFC9BE70021284603B0BDE82B
:1078BC00F04FFEF7F4BB1021F7E72021F5E7032189
:1078CC00F3E70121F1E710492846FBF7B2FA0090E3
:1078DC00FAF7D2FF06EB8002D2F85C4F8346002CFD
:1078EC00C8D14FF48670019203F0D0FC4FF6FF73B1
:1078FC009B450146019A84D1FEE703B0BDE8F08FA9
:10790C00F8DC0008E80200205CE00008222800D81F
:10791C0046E77047222888BF4FF0FF320C4B98BFC8
:10792C0033F91020C2F30310042802F00F0298BFA1
:10793C0003EB800003EB8203DB6D94BF806C0020B3
:10794C00C3F30F2309B1036170474361704700BF54
:10795C00F8DC00082DE9F041184B074693F9172F76
:10796C001E46013206D1BDE8F0410146D3F8040FA2
:10797C00FFF79EBB002407254FF00108002196F964
:10798C00170FFFF7C7FF08FA05F1394096F9150FE5
:10799C00FFF7C0FF96F9170F01216400FFF7BAFF3C
:1079AC0096F9160FE4B2FBF72BF808B144F001047A
:1079BC0015F1FF35E2D22046BDE8F081E802002047
:1079CC00F0B5364D87B095F9143F074601332E4676
:1079DC002AD195F8080FFFF75BFBD5F8000F394655
:1079EC0003681B689847D5F8000F01F0BFFB032212
:1079FC0095F8081FD5F8000F01F07AFCD5F8000FA8
:107A0C000368DB6898470402D5F8000F0368DB684D
:107A1C0098470443D5F8000F24020368DB689847A5
:107A2C000443204607B0F0BD95F9173F013311D13F
:107A3C006C46002301221A492046D5F8045F01F058
:107A4C009DFC94E8070003AB83E8070028460ECBA7
:107A5C00FFF760F8002196F9140FFFF75BFF38462B
:107A6C00FFF778FF0020FFF775FF04020020FFF7F7
:107A7C0071FF04430020FFF76DFF24020443012132
:107A8C0096F9140FFFF746FF96F9173F0133C8D14B
:107A9C00D6F8040F01F056FCC3E700BFE802002043
:107AAC0020A1070008B5FA20FFF78AFFB0F5000FF8
:107ABC001ED01049B1F8182FC2EB20235B435200A3
:107ACC00C2EBE012B1F91A0F1B134243B1F91C0FB0
